:020000020000FC
:0200000045C0F9
:02000400A0C09A
:02000800B4C082
:0200780035C091
:10008C0000E10EBF0FEF0DBF55274427332766271E
:10009C0074E60FEF07BB00E008BB00E001BB00E01B
:1000AC0002BB07E003BF02E000939B0003E0009358
:1000BC00980000E4009399000EE000939D0008E97D
:1000CC0000939A000AEA00936A0003E009BF40EB30
:1000DC00440F48BB7894FFCF0F930FB70F93309119
:1000EC009C00032F053521F453955330A1F018C013
:1000FC00003829F4032F0B32E1F461E01AC06130AF
:10010C00C1F4032F000F402F48BB6627032F083F75
:10011C0081F440D00EC008EC000F08BBF894FFCF60
:10012C00000F08BBF8947AEF48D047D074E6789467
:10013C0000C00F910FBF0F9118950F930FB70F932E
:10014C0000E009BF00E008BB38D000E9000F08BB95
:10015C0034D048BB08B7036008BF07E009BF0F9154
:10016C000FBF0F9118950F930FB70F930FEF00E080
:10017C0009BF00E008BB21D000EA000F08BB1DD06E
:10018C0048BB08B7036008BF07E009BF0F910FBF5A
:10019C000F9118954F930F9308E400939A000091D8
:1001AC009B0005FFF7CF45E540939C0006D008E97E
:1001BC0000939A000F914F9108950F931F93172F4F
:1001CC0004E602BF26B72170E9F321E026BF1A9599
:0801DC00B9F71F910F9108957E
:00000001FF
