:020000020000FC
:0200000045C0F9
:10008C0000E10EBF0FEF0DBF0FEF07BB00E008BB89
:10009C0008E001BB03EF02BB07E003BF02E00093E3
:1000AC009B0003E00093980000E4009399000EE09D
:1000BC0000939D0008E000939A00789420B3237776
:1000CC0001D0FCCF022F023711F415D00895022F66
:1000DC00013711F41ED00895022F033611F427D0E6
:1000EC000895022F033511F430D00895022F0333F5
:1000FC0029F748D008950F930FB70F9300EB08BB67
:10010C001AE23FD010EB3DD03FD00F910FBF0F91B3
:10011C0008950F930FB70F9300E808BB1AE231D084
:10012C0010E82FD031D00F910FBF0F9108950F937E
:10013C000FB70F9300EA08BB1AE223D010EA21D0C4
:10014C0023D00F910FBF0F9108950F930FB70F93FB
:10015C0000E908BB1AE215D010E913D015D00F91A5
:10016C000FBF0F9108950F930FB70F9308EC08BBB7
:10017C001AE207D018EC05D007D00F910FBF0F91E2
:10018C00089510939C0008950F931F931EE104E6AD
:10019C0002BF26B72170E9F321E026BF1A95B9F703
:0601AC001F910F91089560
:00000001FF
