:020000020000FC
:0200000045C0F9
:10008C0000E10EBF0FEF0DBF0FEF07BB00E008BB89
:10009C0000E001BB03EF02BB07E003BF02E00093EB
:1000AC009B0003E00093980000E4009399000EE09D
:1000BC0000939D0008E000939A00789420B3237F6E
:1000CC0001D0FCCF022F023F11F41AD00895022F59
:1000DC00013F11F422D00895022F033E11F42AD0CF
:1000EC000895022F033D11F432D00895022F033BE3
:1000FC0011F43AD00895022F033707FF42D0089528
:10010C000F930FB70F9300EB08BB1BE247D010EB1C
:10011C0045D00F910FBF0F9108950F930FB70F9309
:10012C0000E808BB1BE23AD010E838D00F910FBFA3
:10013C000F9108950F930FB70F9300EA08BB1BE2C2
:10014C002DD010EA2BD00F910FBF0F9108950F9364
:10015C000FB70F9300E908BB1BE220D010E91ED0AB
:10016C000F910FBF0F9108950F930FB70F9308ECDA
:10017C0008BB1BE213D018EC11D00F910FBF0F91DD
:10018C0008950F930FB70F9308EF08BB1BE206D02F
:10019C0018EF04D00F910FBF0F91089500919B00A1
:1001AC0005FFFCCF10939C0008950F931F931EE145
:1001BC0004E602BF26B72170E9F321E026BF1A95A9
:0801CC00B9F71F910F9108958E
:00000001FF
